:020000040000FA
:06000000BCEF16F0120037
:0600080004EF08F01200F5
:060018000CEF08F01200DD
:06100000BCEF16F0120027
:061008004FEF11F0120091
:0610180056EF11F012007A
:06102A000100CC2D0000C6
:08103000B600000005000000FD
:08103800D9CFE6FFE1CFD9FF9B
:10104000E652A09A6A6A686A706A010EE66EE66AFB
:10105000E66A710EE66E0F0EE66E4EEC16F0106E3E
:10106000050EE15E1050160E6F6E9F0E6B6E7B0EBE
:10107000696EDF6ADF50106E116A080E105C000E98
:10108000115810E2DF50040DF3CFE9FFF4CFEAFF6F
:10109000000EE926040EEA22EE6AEE6AEE6AEE6AB5
:1010A000DF2AE8D76D8C6E6A6D986D9C68A607D0B4
:1010B00068960001736B786B796B7A6BF7D70001D8
:1010C000010E8A6F8B6F8C6B8D6B806BDF6A020EEB
:1010D000DF5C26E2EA6ADF34FE0BEA36E96E6B0E6D
:1010E000E926000EEA22EE6AED6AEA6ADF34FE0BB8
:1010F000EA36E96E670EE926000EEA22EE6AED6A2C
:10110000DF50EA6A840FE96E000EEA22EF6ADF50D0
:10111000EA6A860FE96E000EEA22EF6ADF2AD7D765
:101120000001080E6B6F040E6C6F160E706E0401DA
:10113000200E026F040E036F080E016F840E006F05
:101140000001616B606BE552E552E7CFD9FF1200F9
:10115000D9CFE6FFE1CFD9FFE652000160510FE1A0
:101160006D6A696A160E6F6E9F0E6B6E7B0E696EEE
:101170006DB602D06D86FCD70001010E606F600570
:1011800008E16DBA06D0686A696A69806988020EEA
:10119000606F6850040B06E06950040B03E068942C
:1011A0008EEC0EF06DB258D06850010B08E069501B
:1011B000010B05E041DF0001040E606F689068508C
:1011C000100B06E06950100B03E079EC0EF0689804
:1011D00068AC19D069AC0FD0010EE66EE66A000E5D
:1011E000E66EE66A730EE66EE66A15EC14F0106EB3
:1011F000060EE15E1050689C0001885101E08807EE
:10120000885101E1DFD96850200B05E06950200BBF
:1012100002E060EC0EF06850020B13E06950020B24
:1012200010E0010EE66EE66A000EE66EE66AE6681B
:101230007F0EE66E15EC14F0106E060EE15E105097
:101240006A6A040E0001E76E6019E8AE02D0E73466
:1012500002D0E750605D02E2A19A39D069A636D08B
:10126000DF6A040EDF5C32E268A630D06CCF81F01A
:1012700000018151780BE842E842E842826F6896AB
:1012800081B506D08251EA6A860FE96E000E05D05C
:101290008251EA6A840FE96E000EEA22EF708251F1
:1012A00003E1A5EC0EF010D0000EE66EE66A810EAA
:1012B000E66E000EE66E720EE66EE66A15EC14F04F
:1012C000106E060EE15E1050DF2ACBD7A19AE552D0
:1012D000E552E7CFD9FF1200D9CFE6FFE1CFD9FF22
:1012E000020EE126FD0EDBA407D0E66AFE0EDBCF80
:1012F000E6FFF7D9E552E552FD0EDBA208D0010E5C
:10130000E66EFE0EDBCFE6FFECD9E552E552FE0EAF
:10131000DB50116A700F106E0F0E112210C0DEFF2D
:1013200011C0DDFFDECFE9FFDDCFEAFFFD0EDBCF31
:10133000EFFF020EE15C02E2E16AE552E16EE55286
:10134000E7CFD9FF1200D9CFE6FFE1CFD9FF020ED8
:10135000E126FD0EDB500AE0FE0EEA6ADB34FE0BEE
:10136000EA36E96E6B0EE926000E09D0FE0EEA6A37
:10137000DB34FE0BEA36E96E670EE926000EEA2240
:10138000EECFDEFFEDCFDDFFD9CFE9FFDACFEAFF09
:10139000EE50ED1003E1F36AF46A44D0DECFE9FFCA
:1013A000DDCFEAFF020EE926000EEA22FB0EDBCFBC
:1013B000EEFFFC0EDBCFEDFFDECFE9FFDDCFEAFF76
:1013C000EE52FA0EDBCFEFFF400EDECFE9FFDDCFAE
:1013D000EAFFE850EF16880EDECFE9FFDDCFEAFF27
:1013E000E850EF12FD0EDB500AE0FE0EEA6ADB3435
:1013F000FE0BEA36E96E6B0EE926000E09D0FE0EF2
:10140000EA6ADB34FE0BEA36E96E670EE926000E67
:10141000EA22EF74DECF10F0DDCF11F010C0F3FF41
:1014200011C0F4FF020EE15C02E2E16AE552E16EF6
:10143000E552E7CFD9FF1200D9CFE6FFE1CFD9FFC0
:10144000020EE126FE0EDB5020E165C0E9FF66C01A
:10145000EAFFEE52080EEF6E65C0E9FF66C0EAFFD4
:10146000020EE926000EEA22200EEE6E040EED6E4C
:1014700065C0E9FF66C0EAFF8C0EEF6E6BC0E9FF46
:101480006CC0EAFF840EEF6E3BD0FD0EDB50E8240B
:10149000126EFE0EDB50040DF3501224040DF3CF38
:1014A00010F0F4CF11F0000E1026040E112210C01F
:1014B000DEFF11C0DDFF840EDECFE9FFDDCFEAFFE6
:1014C000E850EF12FD0EDB50E824126EFE0EDB50EA
:1014D000040DF3501224010F040DF3CF10F0F4CFDC
:1014E00011F0000E1026040E112210C0DEFF11C0F4
:1014F000DDFF840EDECFE9FFDDCFEAFFE850EF121B
:10150000020EE15C02E2E16AE552E16EE552E7CFEC
:10151000D9FF1200D9CFE6FFE1CFD9FF6DA84ED099
:10152000FE0EEA6ADB34FE0BEA36E96E6B0EE92644
:10153000000EEA22EE50EFCFEAFFE96E400EEE1603
:10154000EE6AEE6AEE6AFE0EEA6ADB34FE0BEA36FB
:10155000E96E6B0EE926000EEA22EE50EFCFEAFFAD
:10156000E96EEE7CFE0EEA6ADB34FE0BEA36E96ECB
:101570006B0EE926000EEA22EF74400E106EFE0E8E
:10158000EA6ADB34FE0BEA36E96E6B0EE926000EE2
:10159000EA22EE50EFCFEAFFE96E1050EF16FE0E92
:1015A000EA6ADB34FE0BEA36E96E6B0EE926000EC2
:1015B000EA22EE50EFCFEAFFE96EEF7CE552E7CF8B
:1015C000D9FF120000018A514DE1010E8A6F8B5143
:1015D00049E1010E8B6F020E705D0DE16BC0E9FFFA
:1015E0006CC0EAFFEE52EF6A6BC0E9FF6CC0EAFF25
:1015F000C80EEF6E1200700535E1836B63C0E9FF22
:1016000064C0EAFFEE52080EEF6E63C0E9FF64C0EB
:10161000EAFF020EE926000EEA22200EEE6E040E0C
:10162000ED6E63C0E9FF64C0EAFF840EEF6E010E49
:10163000836F65C0E9FF66C0EAFFEE52080EEF6EE9
:1016400065C0E9FF66C0EAFF020EE926000EEA2245
:10165000200EEE6E040EED6E65C0E9FF66C0EAFF77
:10166000800EEF6E120000018C6B8D6B020E705DB0
:1016700018E165C0E9FF66C0EAFFEE52080EEF6EA2
:1016800065C0E9FF66C0EAFF020EE926000EEA2205
:10169000280EEE6E040EED6E65C0E9FF66C0EAFF2F
:1016A0001DD074510401265D0001755104012759B4
:1016B00004E226C474F027C475F0CAD86BC0E9FFF1
:1016C0006CC0EAFF020EE926000EEA22280EEE6E3A
:1016D000040EED6E6BC0E9FF6CC0EAFFC80EEF6E42
:1016E0001200D9CFE6FFE1CFD9FF020EE126000EAE
:1016F000DE6E040EDD6EFD0EDB50E824126EFE0E73
:10170000DB50040DF3501224040DF4CF11F0D9CFA7
:10171000E9FFDACFEAFFF350EE261150ED22DECFDB
:10172000E9FFDDCFEAFFEF9EFD0EDB500AE1FE0E82
:10173000EA6ADB34FE0BEA36E96E670EE926000E34
:1017400009D0FE0EEA6ADB34FE0BEA36E96E6B0E58
:10175000E926000EEA22DECFEEFFDDCFEDFFDECF81
:10176000E9FFDDCFEAFFEF9CDECFE9FFDDCFEAFF47
:10177000040EE926000EEA22EF8C020EE15C02E282
:10178000E16AE552E16EE552E7CFD9FF12006D98AC
:10179000000173BF2BD078AF09D0020E706F8D514E
:1017A00001E161DF00018B6B8A6B120065C0E9FF0C
:1017B00066C0EAFFEE52080EEF6E65C0E9FF66C034
:1017C000EAFF020EE926000EEA22200EEE6E040E5B
:1017D000ED6E65C0E9FF66C0EAFF8C0EEF6E6BC070
:1017E000E9FF6CC0EAFF840EEF6E1200040120AF27
:1017F0000DD00001010E706F8C5101E134DF00014A
:101800008B6B8A6B895123E1E2EF0AF00001020E33
:10181000706F65C0E9FF66C0EAFFEE52080EEF6E1A
:1018200065C0E9FF66C0EAFF020EE926000EEA2263
:10183000200EEE6E040EED6E65C0E9FF66C0EAFF95
:10184000840EEF6E8B6B8A6B895101E1BBDE120057
:10185000D9CFE6FFE1CFD9FFE652080EDF6E0001D7
:10186000745D000E75590AE274C0DFFF6F5102E12A
:10187000010E03D06F0502E1020E6F6FDF50116A97
:10188000E850745D746F11507559756F6BC0E9FF46
:101890006CC0EAFFEE52DFCFEFFF280E7D6F040E23
:1018A0007E6F73B118D0DF502DE071C0F6FF72C0AB
:1018B000F7FF712B000E72230800F550E66E7DC015
:1018C000E9FF7EC0EAFF7D2B000E7E23E552E75044
:1018D000EF6EDF06E8D7DF5015E071C0E9FF72C098
:1018E000EAFF712B000E7223EF50E66E7DC0E9FF18
:1018F0007EC0EAFF7D2B000E7E23E552E750EF6E9F
:10190000DF06E9D7E552E552E7CFD9FF1200D9CF7C
:10191000E6FFE1CFD9FF020EE12663C0E9FF64C014
:10192000EAFFEE52EFCFDFFFDFCF10F010500001E3
:10193000795D000E7A5902E279C0DFFFDF50106E48
:10194000116AE850795D796F11507A597A6F010EFA
:10195000DB6ADF50F36E010EDBCFF4FFF350F45C73
:1019600016E2010EDB50EA6A280FE96E040EEA2245
:10197000EF50E66E76C0E9FF77C0EAFF762B000EE7
:101980007723E552E750EF6E010EDB2AE2D7000E17
:10199000D8807955000E7A5527E265C0E9FF66C008
:1019A000EAFFEE52080EEF6E65C0E9FF66C0EAFF7F
:1019B000020EE926000EEA22280EEE6E040EED6EEF
:1019C00063C0E9FF64C0EAFFEF50400B06E165C069
:1019D000E9FF66C0EAFFC80E05D065C0E9FF66C032
:1019E000EAFF880EEF6E28D065C0E9FF66C0EAFF07
:1019F000EE52080EEF6E65C0E9FF66C0EAFF020E08
:101A0000E926000EEA22200EEE6E040EED6E65C091
:101A1000E9FF66C0EAFF840EEF6E7B517C1107E0A0
:101A200005D07CC0FAFF00017B51F96EFADF00019E
:101A3000789F895101E1C6DD020EE15C02E2E16AB4
:101A4000E552E16EE552E7CFD9FF1200D9CFE6FFAC
:101A5000E1CFD9FFE6520001738F010EE66EE66A10
:101A6000E66A710EE66E0F0EE66E4EEC16F0106E24
:101A7000050EE15E1050DF6ADF50106E116A080E2D
:101A8000105C000E115810E2DF50040DF3CFE9FF97
:101A9000F4CFEAFF000EE926040EEA22EE6AEE6AAF
:101AA000EE6AEE6ADF2AE8D76D8CDF6A020EDF5C31
:101AB00010E2DF50EA6A840FE96E000EEA22EF6A54
:101AC000DF50EA6A860FE96E000EEA22EF6ADF2A2B
:101AD000EDD7010EE66EE66AE66A620EE66E000E6D
:101AE000E66E4EEC16F0106E050EE15E10506D9C29
:101AF0000001080E6B6F040E6C6F000E636F040E16
:101B0000646F63C065F0666F22C461F0615102E1E9
:101B1000100E12D0010EE66EE66A610EE66E000E41
:101B2000E66E010EE66EE66A15EC14F0106E060E17
:101B3000E15E10500001200E606FE552E552E7CFE4
:101B4000D9FF1200800E0401205D58E10001C00E93
:101B5000736F04012351030A2FE0010A09E0030A0D
:101B60004BE10001EE0E716F280E726F120E3ED027
:101B70002251F66EF76AD890F636F736E50EF6265D
:101B8000290EF7220900F5CF71F00A00F5CF72F0A7
:101B9000020E0001F76A7125F66E7251F7220800F5
:101BA000F5CF74F0030EF76A7125F66E7251F722C5
:101BB0000800F5CF75F01200030E225D1AE22251E3
:101BC000F66EF76AD890F636F736E70EF626290E47
:101BD000F7220900F5CF71F00A00F5CF72F071C05D
:101BE000F6FF72C0F7FF0800F5500001746F756BC7
:101BF00012000001736B12000001736B1200D9CF49
:101C0000E6FFE1CFD9FF020EE1260401286B296B24
:101C100020511F0B020A11E0030A0CE0010A3CE10B
:101C20000001738F0401288100017F0535E1040163
:101C3000288332D00001738F2FD00001738F0401ED
:101C400024BF0BD024510F0BE96EEA6AD890E93615
:101C5000EA36670EE926000E0AD024510F0BE96E12
:101C6000EA6AD890E936EA366B0EE926000EEA22D7
:101C7000EECFDEFFEDCFDDFFDECFE9FFDDCFEAFF08
:101C8000EF50800B09E0DECFE9FFDDCFEAFFEF5038
:101C9000040B02E0010E286F000173AF07D0280E7D
:101CA000716F040E726F7381020E746F020EE15C2D
:101CB00002E2E16AE552E16EE552E7CFD9FF120098
:101CC00070A015D063C0E9FF64C0EAFFEF50800840
:101CD0000DE16BC0E9FF6CC0EAFFEF50840806E13C
:101CE00063C0E9FF64C0EAFF8C0EEF6E7090689AE3
:101CF0001200698468986D820001010E806F000EE9
:101D0000E66EE66AE66EE66A750EE66EE66A15EC63
:101D100014F0106E060EE15E105012000001806B90
:101D2000000EE66EE66AE66EE66A740EE66EE66A37
:101D300015EC14F0106E060EE15E10506D92699471
:101D400068A402D06894FCD71200D9CFE6FFE1CF97
:101D5000D9FFE65200012D0E886FFD0E811553E16B
:101D60007E0E8115E8407F0B040DF3CF63F0F4CFB6
:101D700064F0000E6327040E642363C065F064C042
:101D800066F0657563C0E9FF64C0EAFFEF503C0B85
:101D9000E842E8420D0835E1DF6A080EDF5C23E225
:101DA00063C0E9FF64C0EAFF020EE926000EEA22E2
:101DB000EE50EFCFEAFFE96EEF50E66EDF50EA6AD1
:101DC000200FE96E040EEA22E552E750EF6E63C081
:101DD000E9FF64C0EAFF020EE926000EEA22EE2ABD
:101DE000EF22DF2ADAD763C0E9FF64C0EAFF020E00
:101DF000E926000EEA22200EEE6E040EED6E0DD8DE
:101E000007D03AD805D0FD0E8115040801E159D854
:101E1000E552E552E7CFD9FF120000016F6B896BE5
:101E20008C6B8D6B836B706B6BC0E9FF6CC0EAFFD2
:101E3000EF9E6B756BC0E9FF6CC0EAFFEF9E6B75A0
:101E400065C0E9FF66C0EAFFEF9E736B746B756B4C
:101E5000786B796B7A6B8CD8000EE66EE66AE66E6C
:101E6000E66A030EE66EE66A15EC14F0106E060ED6
:101E7000E15E1050C7EF0BF0020E0001705D02E151
:101E800087EF0CF0706B83511AE165C0E9FF66C003
:101E9000EAFFEE52080EEF6E65C0E9FF66C0EAFF8A
:101EA000020EE926000EEA22200EEE6E040EED6E02
:101EB00065C0E9FF66C0EAFF8C0EEF6E1200836B0F
:101EC0001200D9CFE6FFE1CFD9FFE6526BC0E9FFA0
:101ED0006CC0EAFFEF50400B01E0010EDF6E000125
:101EE0006B75080E605D08E122C46EFF6E5002E063
:101EF000100E01D0040E606F700526E16BC0E9FF83
:101F00006CC0EAFF020EE926000EEA22280EEE6EF1
:101F1000040EED6E9DDC020E00016F5D06E16BC0EC
:101F2000E9FF6CC0EAFF840E0DD0DF5006E16BC004
:101F3000E9FF6CC0EAFFC80E05D06BC0E9FF6CC0BA
:101F4000EAFF880EEF6E0FD078AF0CD07B517C117A
:101F500007E005D07CC0FAFF00017B51F96EFADF83
:101F60000001789F706BE552E552E7CFD9FF120070
:101F700004012051600BE842E842E842E842E842AE
:101F8000000901E0120021510C0A50E00B0A3FE069
:101F90000C0A31E0010A22E00B0A1EE0020A1CE0F2
:101FA000030A18E0080A10E0010A0CE00F0A08E032
:101FB000030A01E012000001738F080E606F120027
:101FC000A2EF0DF026EF0DF00001610E716F000E13
:101FD000726F0CD0FFEF0DF017EF10F024510001DD
:101FE000716F726B620E7127000E72237381010E86
:101FF000746F738F12000001738F04012451EA6A19
:10200000620FE96E000EEA2222C4EFFF1200000EFA
:10201000E66EE66AE66EE66A020EE66EE66A15ECC3
:1020200014F0106E060EE15E105012001200D9CFAF
:10203000E6FFE1CFD9FF050EE1260401220510E1FC
:1020400020511F0B00090CE10001738F030E0401E6
:10205000215D04E10001010E7F6F02D000017F6B62
:102060000401225101E011D120511F0B020801E0AF
:102070000CD124510F0B000901E107D124510F0BA2
:10208000010801E202D1200E0001605D01E0FDD0F7
:10209000738F040124BF16D024510F0BE96EEA6A36
:1020A000D890E936EA36670EE926000EEA22EECF2E
:1020B000DEFFEDCFDDFF24510F0BEA6A860FE96EDC
:1020C000000E15D024510F0BE96EEA6AD890E9365C
:1020D000EA366B0EE926000EEA22EECFDEFFEDCFE8
:1020E000DDFF24510F0BEA6A840FE96E000EEA222D
:1020F000020EEFCFDBFFD950020FE96EDACFEAFF15
:10210000EF50010B03E1000EDF9401D0DF8424BF08
:102110000BD024510F0BE96EEA6AD890E936EA3603
:10212000670EE926000E0AD024510F0BE96EEA6A09
:10213000D890E936EA366B0EE926000EEA22DECFA9
:10214000EEFFDDCFEDFF030E215D20E1DECFE9FFE5
:10215000DDCFEAFFEF50800B11E024BF07D0245100
:102160000F0BEA6A860FE96E000E06D024510F0BA2
:10217000EA6A840FE96E000EEA22EF82840EDECF57
:10218000E9FFDDCFEAFFE850EF127FD0DF74DECF4A
:10219000E9FFDDCFEAFFEF50800B1BE0DECFE9FF68
:1021A000DDCFEAFFEF9EDECFE9FFDDCFEAFFEF8C68
:1021B000020EE66EE66ADECFE6FFDDCFE6FF050E35
:1021C000E66EE66A15EC14F0106E060EE15E105035
:1021D00005D0DECFE9FFDDCFEAFFEF8CDF74D95009
:1021E000020FE96EDACFEAFFEF50020B07E1DECF14
:1021F000E9FFDDCFEAFFEF50800B2BE0040124BFA5
:1022000007D024510F0BEA6A860FE96E000E06D044
:1022100024510F0BEA6A840FE96E000EEA22EF9256
:102220003B0E106EDECFE9FFDDCFEAFFE850EF1680
:10223000020EE66EE66ADECFE6FFDDCFE6FF050EB4
:10224000E66EE66A15EC14F0106E060EE15E1050B4
:1022500007D03B0EDECFE9FFDDCFEAFFE850EF16F7
:10226000040124510F0B116A700F106E0F0E112212
:10227000030E10C0DBFF040E11C0DBFF030EDBCF2B
:10228000E9FF040EDBCFEAFFEF90050EE15C02E20E
:0E229000E16AE552E16EE552E7CFD9FF120098
:02229E00DACF95
:1022A000E4FFE652E552E5CFDAFF1100D8CFE4FFB4
:1022B000E0CFE4FFE46EDACFE4FFE652E552E5CF8B
:1022C000DAFFE550E5CFE0FFE5CFD8FF100005D8F5
:1022D0009392A8EC08F028D8FCD7C16AF19E0F0EA3
:1022E000936E02D81CEF08F0F30EE66E7C0EE66EDD
:1022F000D50EE66EF1EC15F0E552E552E5524F0EC3
:10230000AB16AC9ACF0E9D169B0EE66EE66A7C0E5F
:10231000E66EACEC15F0E552E552E55200018E6B2D
:102320008F6B906B916B1200200E0001E76E6019AD
:10233000E8AE02D0E73402D0E750605D06E36D50AE
:10234000020B01E0120078D8B3D91200D9CFE6FF12
:10235000E1CFD9FFFD0EDB50E8B08182E8A0819289
:10236000E552E7CFD9FF1200D9CFE6FFE1CFD9FF81
:10237000FE0EDB50060A1EE0030A19E0010A14E013
:10238000070A0FE0010A0AE0030A05E0010A14E166
:102390009292809211D0929480940ED092968096D0
:1023A0000BD0929A809A08D09394819405D09396FA
:1023B000819602D09398819892908080870EE66EE5
:1023C0007FEC16F0E552FE0EDB50060A1EE0030A13
:1023D00019E0010A14E0070A0FE0010A0AE0030A03
:1023E00005E0010A18E192828F0E11D09284970EB7
:1023F0000ED092869F0E0BD0928AA70E08D093849F
:10240000C70E05D09386CF0E02D09388DF0EE66EFE
:102410007FEC16F0E552050EE66ECAEC16F0E552BA
:10242000E3EC16F0DEEC16F00009FCE1D5EC16F05A
:10243000E552E7CFD9FF1200D9CFE6FFE1CFD9FFB0
:10244000020EE1260001976BE66A8EDFE552F3CFBC
:10245000DEFFF4CFDDFF0001DE50985D106EDD5031
:102460009959116EE83408E21050C808000E115452
:1024700003E2010E9711976FDE509827DD509923E4
:10248000020E0D6E0E6A98C008F099C009F028EC93
:1024900016F008C098F009C099F0010EE66E64DFEE
:1024A000E552F3CFDEFFF4CFDDFF0001DE509A5D91
:1024B000106EDD509B59116EE83408E21050C808C8
:1024C000000E115403E2080E9711976FDE509A2701
:1024D000DD509B23020E0D6E0E6A9AC008F09BC061
:1024E00009F028EC16F008C09AF009C09BF0020E23
:1024F000E66E3ADFE552F3CFDEFFF4CFDDFF0001F9
:10250000DE509C5D106EDD509D59116EE83408E27E
:102510001050C808000E115403E2020E9711976F75
:10252000DE509C27DD509D23020E0D6E0E6A9CC06E
:1025300008F09DC009F028EC16F008C09CF009C016
:102540009DF0030EE66E10DFE552F3CFDEFFF4CF11
:10255000DDFF0001DE509E5D106EDD509F59116E53
:10256000E83408E21050C808000E115403E2040ECB
:102570009711976FDE509E27DD509F23020E0D6E40
:102580000E6A9EC008F09FC009F028EC16F008C043
:102590009EF009C09FF0040EE66EE6DEE552F3CF32
:1025A000DEFFF4CFDDFF0001DE50A05D106EDD50D8
:1025B000A159116EE83408E21050C808000E1154F9
:1025C00003E2100E9711976FDE50A027DD50A12374
:1025D000020E0D6E0E6AA0C008F0A1C009F028EC32
:1025E00016F008C0A0F009C0A1F0050EE66EBCDE32
:1025F000E552F3CFDEFFF4CFDDFF0001DE50A25D38
:10260000106EDD50A359116EE83408E21050C8086E
:10261000000E115403E2400E9711976FDE50A2276F
:10262000DD50A323020E0D6E0E6AA2C008F0A3C0F7
:1026300009F028EC16F008C0A2F009C0A3F0060EBD
:10264000E66E92DEE552F3CFDEFFF4CFDDFF000150
:10265000DE50A45D106EDD50A559116EE83408E21D
:102660001050C808000E115403E2200E9711976F06
:10267000DE50A427DD50A523020E0D6E0E6AA4C005
:1026800008F0A5C009F028EC16F008C0A4F009C0B5
:10269000A5F0140EE66E68EC16F0E552020EE15C51
:1026A00002E2E16AE552E16EE552E7CFD9FF12009E
:1026B00000018E518F1102E1000E08D08EC0E9FF9B
:1026C0008FC0EAFFEF50800B01E0010E000967E1C7
:1026D0000001B651B7112CE10001975101E1120040
:1026E000010EE66EE66A32DEE552E55297C032F43C
:1026F0000401020E316F010E0001B66FB76B020EBE
:10270000E66E310EE66E040EE66E010EE66EE66EC5
:10271000A3EC09F0106E050EE15E1050F3CF8EF0C1
:10272000F4CF8FF0320EE66E68EC16F0E552120030
:10273000010EB61934E1B75132E1040131050CE163
:10274000010E316F326B336B346B356B366B376B1D
:10275000386B396B090E03D0020E316F326BE66EA7
:10276000310EE66E040EE66E010EE66EE66EA3EC2A
:1027700009F0106E050EE15E1050F3CF8EF0F4CF2D
:102780008FF0320EE66E68EC16F0E552000EE66E43
:10279000E66ADCDDE552E5520001B66BB76B12006C
:1027A0001200120012001200F7EF14F012001E0EB9
:1027B000E66E010EE66E6CEC09F0E552E552010E94
:1027C000E66E300EE66E040EE66EE66A010EE66E0A
:1027D000A3EC09F0106E050EE15E1050F3CF90F0FF
:1027E000F4CF91F0120000017F051EE10001800589
:1027F0001BE1D7DF6D920001806B0001100EAA6F04
:102800000E0EAB6FAA07000EAB5BAA51AB11FAE13B
:102810006D84080EAA6F070EAB6FAA07000EAB5BA4
:10282000AA51AB11FAE16D941200D9CFE6FFE1CFC6
:10283000D9FFFD0EDBCF08F0FE0EDBCF09F0050E51
:10284000081801E1095036E0E868081802E17F0E37
:1028500009182FE0030E081801E1095028E0020EC4
:10286000081801E1095021E0010E081801E10950A2
:102870001AE0740E081801E1095013E0750E0818EB
:1028800001E109500CE0730E081801E1095005E060
:10289000720E08180FE109500DD084DF0BD080DFD5
:1028A00009D07FDF07D083DF05D080DF03D07CDF56
:1028B00001D079DF010EE552E7CFD9FF1200000108
:1028C000280E766F040E776F080E796F7A6BDA0E2A
:1028D0007B6F280E7C6F788F12000001926BE00EE8
:0E28E000936F220E946F020E956F966B12008E
:0228EE001201D5
:1028F000000200000008D804550001000102000198
:1029000009022900010100E032090400000203016C
:102910000100092111010001226800070581030956
:102920000001070501030100010403090434034DFC
:10293000006900630072006F006300680069007046
:1029400000200054006500630068006E006F006C9A
:10295000006F0067007900200049006E0063002EC0
:10296000001C034B006500790062006F006100727B
:102970000064002000440065006D006F000501093F
:1029800006A1018501050719E029E7150025017554
:10299000019508810295017508810395057501056A
:1029A0000819012905910295017503910395067592
:1029B00008150025650507190029658100C0050C6B
:1029C0000901A1018502050C150025017501950776
:1029D00009B509B609B709CD09E209E909EA810291
:0D29E00095018101C0002929292D296129B7
:0229EE000401E2
:1029F00020511F0B010801E01200245101E01200D8
:102A0000060E215D1EE12351230A1BE0010A0CE0A2
:102A1000030A17E10001610514E10001120E716F54
:102A2000290E726F090E09D0000161050AE100014B
:102A30007D0E716F290E726F680E746F756BC00E0C
:102A4000736F04012051600BE842E842E842E8421B
:102A5000E842010801E0120021510B0A28E0080AAF
:102A60001BE0090A13E0080A07E00B0A03E0080A62
:102A700023E012005FEF14F00001BB0E716F000E37
:102A8000726F010E746F756BC10E0FD00001800E56
:102A9000736F23C4BBF012000001BC0E716F000EF7
:102AA000726F010E746F756B810E736F12000001EF
:0A2AB000800E736F22C4BCF0120008
:062ABA002A0EF66E100E5C
:102AC000F76E000EF86E00010900F550B16F0900B5
:102AD000F550B26F03E1B16701D03DD00900F55068
:102AE000AC6F0900F550AD6F0900F550AE6F0900ED
:102AF0000900F550E96E0900F550EA6E0900090079
:102B00000900F550AF6F0900F550B06F09000900DA
:102B1000F6CFB3F0F7CFB4F0F8CFB5F0ACC0F6FF16
:102B2000ADC0F7FFAEC0F8FF0001AF5302E1B053F4
:102B300007E00900F550EE6EAF07F8E2B007F9D7ED
:102B4000B3C0F6FFB4C0F7FFB5C0F8FF0001B1078E
:082B5000000EB25BBFD71200BA
:082B5800D9CFE6FFDACFE6FF5A
:102B6000E1CFD9FFE2CFDAFFAC6AAB6AFD0EDBB092
:102B7000AC88DBA202D0AC8CAB8CDBB4AC8EDBA619
:102B800002D0AB8801D0AB8ADBB8AC849E98DBBAAC
:102B9000AB86DBAC02D09D8A01D09D9A9E9ADBAEBB
:102BA00002D09D8801D09D98FB0EDB50AF6EFB0ECE
:102BB000FC0EDBCF11F011C010F0116A1050B06E96
:102BC000AC8AAB8E949C948EAC50100B04E0AC504D
:102BD000800B01E1948CE552E5CFDAFFE7CFD9FF16
:022BE0001200E1
:0E2BE200D9CFE6FFDACFE6FFE1CFD9FFE2CF91
:102BF000DAFFC26AC06AFC0EDB407F0B3C0BC26E80
:102C0000FC0EDB38F00B300B106EFB0EDB500F0BA5
:102C10001010C16EFD0EDB50040DF350380B116E19
:102C2000FD0EDB380F0B070B106EFD0EDB50800B1B
:102C300010101110C06EFC0EDBAE03D09E9C9D8C5C
:102C4000F28CC280E552E5CFDAFFE7CFD9FF120060
:102C5000006A0EAE31EF16F00D6C0E1EE86A0E2201
:102C6000001E09AE39EF16F0086C091EE86A092249
:102C7000001E96EC16F009BE49EF16F000AE000CEF
:102C8000086C091EE86A0922046C051EE86A052220
:0C2C9000000C00BE40EF16F00188FF0CA5
:042C9C00FE0EE3CF76
:102CA000E9FFFF0EE3CFEAFFE9CFF3FFEACFF4FF3E
:102CB000FB0EE35003E1FC0EE35009E0FB0EE306DC
:102CC00002E2FC0EE306FD0EE350EE6EF1D71200B9
:102CD000FF0EE350156EEF0E01D0F30EE76EE72EF8
:102CE0006FEF16F00C0E146EE76AE72E75EF16F014
:0E2CF000142E74EF16F0152E6DEF16F0120074
:022CFE00D9CF2C
:102D0000E6FFDACFE6FFE1CFD9FFE2CFDAFFC30E6D
:102D1000C214106EFD0EDB407F0B3C0B1010C26E18
:0C2D2000E552E5CFDAFFE7CFD9FF120043
:042D2C00056A046AC6
:102D3000100EE76ED89008360936043605360D5069
:102D4000045C0E50055805E30D50045E0E50055A04
:082D5000082AE72EF0D712005B
:082D5800000EF36E00EE00F026
:102D6000080E01D81200EA6002D0EE6AFCD7F350D8
:082D7000E9601200EE6AFCD7D5
:082D780013EE00F023EE00F061
:102D8000F86A019C5DEC15F0E5EC16F067EC11F0CB
:042D9000FBD712005B
:0C2D9400FF0EE350E84E1200000000D0DB
:0A2DA00000D000D0E82EFAD7120090
:062DAA00C450136E126A12
:0C2DB000C3501210F36E13C0F4FF1200A9
:042DBC00C250020BF4
:062DC00001E0010E12000B
:042DC600C2821200B3
:022DCA001200F5
:042DCC000000000003
:012DD00004FE
:020000040030CA
:0100000022DD
:010001000EF0
:010002003FBE
:010003001EDE
:010005008179
:010006008178
:010008000FE8
:01000900C036
:01000A000FE6
:01000B00E014
:01000C000FE4
:01000D0040B2
:00000001FF
